:100000000C9434000C9451000C9451000C94510049
:100010000C9451000C9451000C9451000C9451001C
:100020000C9451000C9451000C9451000C949E00BF
:100030000C9451000C9451000C9451000C945100FC
:100040000C9451000C9451000C9451000C945100EC
:100050000C9451000C9451000C9451000C945100DC
:100060000C9451000C94510011241FBECFEFD8E026
:10007000DEBFCDBF11E0A0E0B1E0EAECF6E002C0E7
:1000800005900D92A630B107D9F711E0A6E0B1E0D6
:1000900001C01D92A831B107E1F70E9453000C94F2
:1000A00063030C940000EF92FF920F931F9380E084
:1000B00090E060E070E00E947A0081E284B980E81C
:1000C000E82E84E8F82E8EE1082F112D0E94E3001F
:1000D000A80197010E947B01613422E472072FE09E
:1000E000820720E0920718F02D98289AEFCF2D9ADA
:1000F0002898ECCF10920A0110920B0110920C017B
:1001000010920D01E1E8F0E021E0208320812860D9
:10011000208320E43FE13093890020938800EFE6BC
:10012000F0E02081226020839093070180930601F4
:100130007093090160930801789408951F920F92BB
:100140000FB60F9211242F933F934F935F936F93AA
:100150007F938F939F93AF93BF93EF93FF93809180
:100160000A0190910B01A0910C01B0910D01019633
:10017000A11DB11D80930A0190930B01A0930C0166
:10018000B0930D01E0910601F0910701309709F05D
:100190000995B19B07C0E0910801F09109013097E2
:1001A00009F00995FF91EF91BF91AF919F918F91C8
:1001B0007F916F915F914F913F912F910F900FBE63
:1001C0000F901F9018951F931FB7F894B09924C0F3
:1001D00060910A0170910B0180910C0190910D01C9
:1001E00024EF31E040E050E00E945C012091840067
:1001F000309185001FBF40E050E0E4E05595479501
:1002000037952795EA95D1F7260F371F481F591FB5
:10021000B901CA011F91089560910A0170910B0103
:1002200080910C0190910D016F5F7F4F8F4F9F4F19
:1002300024EF31E040E050E00E945C01D7CF84B56C
:10024000836084BD84B5806284BD85B5816085BDD1
:1002500018BC80E28AB908959091C00095FFFCCF48
:100260008093C60080E090E008958091C00087FFF1
:10027000FCCF8091C60090E008951092C50087E6FB
:100280008093C400E0ECF0E080818D7F808386E085
:100290008093C20088E18093C10008958CE291E0D0
:1002A00060E070E00E949D01089580E090E065E3C9
:1002B00071E00E949D010895629FD001739FF0013B
:1002C000829FE00DF11D649FE00DF11D929FF00DE6
:1002D000839FF00D749FF00D659FF00D9927729F1D
:1002E000B00DE11DF91F639FB00DE11DF91FBD01A8
:1002F000CF0111240895A1E21A2EAA1BBB1BFD01F8
:100300000DC0AA1FBB1FEE1FFF1FA217B307E407F4
:10031000F50720F0A21BB30BE40BF50B661F771F4C
:10032000881F991F1A9469F760957095809590952C
:100330009B01AC01BD01CF0108950F931F93CF9393
:10034000DF938C01EB01009711F42097C9F181E054
:1003500090E06EE070E00E94E801FC019C010097D3
:1003600089F180E88383209771F0D387C28781E881
:10037000838380910E0190910F01009721F4F093F7
:100380000F01E0930E0101151105E1F011870087BF
:100390008381826083838091100190911101009785
:1003A00089F4F0931101E093100180911201909172
:1003B0001301009739F4F0931301E093120102C086
:1003C00020E030E0C901DF91CF911F910F91089596
:1003D000EF92FF920F931F93CF93DF93689F80015B
:1003E000699F100D789F100D1124C8010E940C0206
:1003F000E82EE7017E01F92EE701209731F08E2DDE
:1004000060E070E0A8010E9441037E01CE01CDB7FB
:10041000DEB7E6E00C945403CF93DF93823091056E
:1004200010F482E090E0E0911601F091170120E0D5
:1004300030E040E050E028C06081718168177907A2
:10044000C8F06817790781F48281938141155105BD
:1004500031F0DA0113969C938E9312972DC09093EE
:1004600017018093160128C02115310529F0621764
:10047000730710F0B90102C0EA01DF01AF019B016F
:1004800072816381E72FF62F3097B1F62115310580
:1004900001F1281B390B2430310580F412968D911F
:1004A0009C911397209719F09B838A8304C09093A3
:1004B000170180931601FD01329646C0FD01E20F3F
:1004C000F31F819391932250304011963C932E93C9
:1004D0003BC020911401309115012115310541F4E3
:1004E00020910201309103013093150120931401F2
:1004F00020910401309105012115310541F42DB7FA
:100500003EB74091000150910101241B350BE09151
:100510001401F0911501E217F307A0F42E1B3F0B15
:100520002817390778F0AC014E5F5F4F2417350765
:1005300048F04E0F5F1F50931501409314018193B3
:10054000919302C0E0E0F0E0CF01DF91CF910895F8
:10055000CF93DF93009709F491C0FC013297138287
:10056000128260911601709117016115710581F475
:1005700020813181280F391F80911401909115013C
:100580008217930799F5F0931501E093140176C053
:10059000DB0180E090E002C0CD01D901AE17BF07BA
:1005A00048F412962D913C91139721153105A1F72E
:1005B000CD0121C0B383A283EF01499159919E01DE
:1005C000240F351FA217B30779F42D913C91119791
:1005D000240F351F2E5F3F4F3183208312962D91BC
:1005E0003C91139733832283009729F4F0931701EA
:1005F000E093160143C0DC011396FC93EE9312972F
:100600004D915D91A40FB51FEA17FB0769F4208196
:100610003181240F351F2E5F3F4FEC013983288332
:10062000228133813B832A83E0E0F0E002C0FB01BA
:10063000BC01DB0112968D919C9113970097B9F73D
:100640009B012E5F3F4F8D919C911197820F931FBD
:1006500040911401509115014817590779F43097CA
:1006600029F4109217011092160102C0138212820F
:10067000225030403093150120931401DF91CF9127
:100680000895DC0101C06D9341505040E0F708959A
:100690002A88398848885F846E847D848C849B8412
:1006A000AA84B984C884DF80EE80FD800C811B8120
:1006B000AA81B981CE0FD11D0FB6F894DEBF0FBE4F
:0A06C000CDBFED010895F894FFCFBF
:0606CA00200018010000F1
:00000001FF
