:100000000C9434000C9451000C9451000C94510049
:100010000C9451000C9451000C9451000C9451001C
:100020000C9451000C9451000C9451000C9411014B
:100030000C9451000C9451000C9451000C945100FC
:100040000C9451000C9451000C9451000C945100EC
:100050000C9451000C9451000C9451000C945100DC
:100060000C9451000C94510011241FBECFEFD8E026
:10007000DEBFCDBF12E0A0E0B1E0ECEAF3E102C0E8
:1000800005900D92AE30B107D9F712E0AEE0B2E0C4
:1000900001C01D92A032B107E1F70E9453000C94F9
:1000A000D4090C9400006F927F928F929F92AF922E
:1000B000BF92CF92DF92EF92FF920F931F93CF9355
:1000C000DF938FEF84B952985A9AC0E9D1E088EE55
:1000D00093E0FE013197F1F70197D9F74A9903C0F0
:1000E000289A2D9AF4CF84E6A82EB12C01E010E0D6
:1000F00020E030E0289A2D9884EF91E0FE013197BE
:10010000F1F70197D9F728982D9A84EF91E0FE0135
:100110003197F1F70197D9F72F5F3F4F0217130778
:100120004CF7B501882777FD8095982F0E943205FE
:100130006B017C0120E030E04AE755E40E94A50312
:10014000962E872E782E692EA4019301652F742F89
:10015000832F922F20E030E040E85FE30E94020509
:1001600087FD2CC0A4019301652F742F832F922F3C
:1001700020E03FEF4FE757E40E94A20418161CF559
:10018000C701B60120E030E040E251E40E94A5033F
:100190000E94CF016115710531F0CE010197F1F791
:1001A00061507040D1F70F5F1F4F84E690E0A80EBA
:1001B000B91E0B30110509F09BCF89CF81E090E08B
:1001C0000197F1F7F0CFA4019301652F742F832FCE
:1001D000922F0E94CF01CB01F3CF10921202109206
:1001E00013021092140210921502E1E8F0E021E0EF
:1001F000208320812860208320E43FE13093890020
:1002000020938800EFE6F0E0208122602083909325
:100210000F0280930E027093110260931002789483
:1002200008951F920F920FB60F9211242F933F93B0
:100230004F935F936F937F938F939F93AF93BF93EE
:10024000EF93FF938091120290911302A0911402F8
:10025000B09115020196A11DB11D809312029093D9
:100260001302A0931402B0931502E0910E02F091D4
:100270000F02309709F00995B19B07C0E091100279
:10028000F0911102309709F00995FF91EF91BF911C
:10029000AF919F918F917F916F915F914F913F911E
:1002A0002F910F900FBE0F901F9018951F931FB79F
:1002B000F894B09924C06091120270911302809159
:1002C00014029091150224EF31E040E050E00E94CA
:1002D000D30720918400309185001FBF40E050E09B
:1002E000E4E05595479537952795EA95D1F7260F80
:1002F000371F481F591FB901CA011F910895609106
:1003000012027091130280911402909115026F5F96
:100310007F4F8F4F9F4F24EF31E040E050E00E942D
:10032000D307D7CF84B5836084BD84B5806284BD94
:1003300085B5816085BD18BC80E28AB90895909129
:10034000C00095FFFCCF8093C60080E090E0089548
:100350008091C00087FFFCCF8091C60090E0089597
:100360001092C50087E68093C400E0ECF0E0808145
:100370008D7F808386E08093C20088E18093C100F6
:1003800008958FE991E060E070E00E9429080895E7
:1003900080E090E068EA71E00E9429080895EF92F9
:1003A000FF920F931F937B018C0120E030E040E02F
:1003B0005FE40E94D20487FD11C0C801B70120E0AC
:1003C00030E040E05FE40E9474030E9492059B01CC
:1003D000AC01205030404040504806C0C801B70131
:1003E0000E9492059B01AC01B901CA011F910F91B6
:1003F000FF90EF900895A0E0B0E0E1E0F2E00C940F
:10040000F607FC01EA018081823008F43AC1DB0181
:100410009C91923008F432C1843059F4943009F040
:1004200030C1918111968C911197981709F023C1D1
:1004300028C1943009F422C19230B1F4823009F01D
:1004400020C1CA01AF0128E0DA010D90AD01DC0145
:100450000D92CD012150C1F7DB0111968C911197BE
:100460009181892389830CC1823009F407C1C2803C
:10047000D380DB0112966D907C9013972481358197
:10048000468157811496ED90FD900D911C91179720
:10049000C601861997095C0197FF04C0AA24BB24F2
:1004A000A81AB90AB0E2AB16B1040CF062C0181673
:1004B00019066CF5370148010A2C04C096948794FC
:1004C000779467940A94D2F781E090E0A0E0B0E0DE
:1004D0000A2C04C0880F991FAA1FBB1F0A94D2F7C9
:1004E0000197A109B1098E219F21A023B123EE24F8
:1004F000FF248701E3940097A105B10519F4EE24C8
:10050000FF248701E628F728082919293EC000970B
:10051000E1F1CA0CDB1C39014A010A2C04C0969493
:100520008794779467940A94D2F781E090E0A0E0F2
:10053000B0E00A2C04C0880F991FAA1FBB1F0A94A1
:10054000D2F70197A109B10982239323A423B523EC
:1005500021E030E040E050E00097A105B10521F432
:1005600020E030E040E050E0262937294829592989
:100570000CC06C147D0424F4EE24FF24870105C014
:10058000630120E030E040E050E08181FB01918197
:10059000891709F445C0882349F0D801C701821B97
:1005A000930BA40BB50B9C01AD0104C02E193F09A0
:1005B000400B510B57FD04C01982DB82CA820BC06D
:1005C00081E08983DB82CA825095409530952195E0
:1005D0003F4F4F4F5F4F2C833D834E835F830DC052
:1005E000880F991FAA1FBB1F8C839D83AE83BF8377
:1005F0008A819B8101979B838A838C819D81AE81B7
:10060000BF819C01AD0121503040404050402F3F00
:10061000EFEF3E07EFEF4E07EFE35E0708F30BC087
:100620008983DB82CA822E0D3F1D401F511F2C8300
:100630003D834E835F8383E088832C813D814E819F
:100640005F8157FF1DC0DA01C90181709070A070F1
:10065000B0705695479537952795822B932BA42BF1
:10066000B52B8C839D83AE83BF838A819B8101964A
:100670009B838A8305C0E0E0F1E003C0FB0101C079
:10068000FE01CF01CDB7DEB7EEE00C941208A0E278
:10069000B0E0EDE4F3E00C94FE0769837A838B838A
:1006A0009C832D833E834F83588789E0E82EF12C6D
:1006B000EC0EFD1ECE010196B7010E9411078E01BE
:1006C0000F5E1F4FCE010596B8010E941107C701AA
:1006D000B801AE01475E5F4F0E94FB010E944006D9
:1006E000A096E6E00C941A08A0E2B0E0EAE7F3E096
:1006F0000C94FE0769837A838B839C832D833E83CE
:100700004F8358878E01075F1F4FCE010196B801B6
:100710000E94110791E1E92EF12CEC0EFD1ECE0195
:100720000596B7010E9411078A8991E089278A8B73
:10073000C801B701AE01475E5F4F0E94FB010E94F6
:100740004006A096E6E00C941A08A0E2B0E0EBEABE
:10075000F3E00C94F20769837A838B839C832D8367
:100760003E834F835887CE010196BE01675F7F4F5E
:100770000E941107CE010596BE016F5E7F4F0E9459
:1007800011079985923078F089898230C0F09430D1
:1007900019F4823041F4CEC0843019F4923079F4E7
:1007A000C9C0923051F481E02A859A89291709F449
:1007B00080E08A87CE010996BFC0823051F481E083
:1007C0002A859A89291709F480E08A8BCE014196FF
:1007D000B3C06D847E848F849888ED88FE880F89ED
:1007E000188DE0E2F0E080E090E0A0E0B0E0AA2424
:1007F000BB24650120E030E040E050E0B3016170CF
:10080000707061157105D9F02E0D3F1D401F511FED
:1008100015012601280E391E4A1E5B1E81E090E05C
:10082000A0E0B0E02E153F054007510720F080E022
:1008300090E0A0E0B0E0820D931DA41DB51DAA0CB0
:10084000BB1CCC1CDD1C17FF09C061E0262E312C1F
:10085000412C512CA228B328C428D528319749F01F
:10086000EE0CFF1C001F111F9694879477946794D9
:10087000C5CF6B897C89EB85FC856E0F7F1F6E5F12
:100880007F4F7C8F6B8F61E0EA857A89E71709F4E7
:1008900060E06A8F6B8D7C8D10C0FC01E170F070A0
:1008A000309729F056954795379527955068B69516
:1008B000A795979587956F5F7F4FB7FDEECF0CC0DB
:1008C000880F991FAA1FBB1F57FD8160220F331F7E
:1008D000441F551F615070408030E0E09E07E0E00B
:1008E000AE07E0E4BE0760F36B8F7C8F6FE7E62E08
:1008F000F12C012D112DE822F9220A231B2360E49B
:10090000E616F1040105110561F487FD0AC0211501
:1009100031054105510529F0805C9F4FAF4FBF4F16
:1009200080788D8F9E8FAF8FB8A383E0898FCE01A3
:10093000499602C080E091E00E944006A096E2E164
:100940000C940E08A8E1B0E0E8EAF4E00C94FE078D
:1009500069837A838B839C832D833E834F8358875F
:100960008E01075F1F4FCE010196B8010E9411074B
:1009700081E1E82EF12CEC0EFD1ECE010596B701AB
:100980000E9411078985823040F08989823028F0E1
:10099000C801B7010E947A0701C08FEF6896E6E0B0
:1009A0000C941A08A8E1B0E0E8EDF4E00C94FE071E
:1009B00069837A838B839C832D833E834F835887FF
:1009C0008E01075F1F4FCE010196B8010E941107EB
:1009D00081E1E82EF12CEC0EFD1ECE010596B7014B
:1009E0000E9411078985823040F08989823028F081
:1009F000C801B7010E947A0701C08FEF6896E6E050
:100A00000C941A08A8E1B0E0E8E0F5E00C94FE07C9
:100A100069837A838B839C832D833E834F8358879E
:100A20008E01075F1F4FCE010196B8010E9411078A
:100A300081E1E82EF12CEC0EFD1ECE010596B701EA
:100A40000E9411078985823040F08989823028F020
:100A5000C801B7010E947A0701C081E06896E6E00C
:100A60000C941A08A8E0B0E0E8E3F5E00C94FE0767
:100A70007B018C0183E08983D801C7018827B7FDFA
:100A800083959927AA27BB27282F8A83E114F1048D
:100A90000105110519F482E0898337C08EE190E0E9
:100AA0009C838B83222389F080E0E81680E0F8069F
:100AB00080E0080780E8180769F110950095F09428
:100AC000E094E11CF11C011D111DED82FE820F83DB
:100AD0001887C801B7010E94E5059C0121503040EC
:100AE0001216130694F4022E04C0EE0CFF1C001F15
:100AF000111F0A94D2F7ED82FE820F8318878EE1D0
:100B000090E0821B930B9C838B83CE0101960E9405
:100B1000400604C060E070E080E09FEC2896E6E0CC
:100B20000C941A08ACE0B0E0E8E9F5E00C94020897
:100B300069837A838B839C83CE010196BE016B5FB0
:100B40007F4F0E9411078D81823081F1823070F1D8
:100B5000843021F48E81882371F10AC02F81388579
:100B600037FD24C06E812F3131053CF0662319F129
:100B700020E030E040E050E822C08EE190E0821BAF
:100B8000930B29853A854B855C8504C0569547951E
:100B9000379527958A95D2F7662389F05095409529
:100BA000309521953F4F4F4F5F4F09C020E030E017
:100BB00040E050E004C02FEF3FEF4FEF5FE7B90197
:100BC000CA012C96E2E00C941E08AF92BF92CF921D
:100BD000DF92EF92FF920F931F937B018C0180E0D5
:100BE000E81680E0F80681E0080780E0180760F466
:100BF000EFEFEE16F1040105110509F098F480E01D
:100C000090E0A0E0B0E017C0F0E0EF16F0E0FF06E3
:100C1000F0E00F07F1E01F0750F480E190E0A0E062
:100C2000B0E009C088E090E0A0E0B0E004C088E156
:100C300090E0A0E0B0E020E230E040E050E0281B8F
:100C4000390B4A0B5B0B5701680104C0D694C7945B
:100C5000B794A7948A95D2F7D601C501885F9E4FB5
:100C6000FC018081281B310941095109C9011F91EB
:100C70000F91FF90EF90DF90CF90BF90AF900895CD
:100C8000EF92FF920F931F93CF93DF93FC01248188
:100C900035814681578161818081823020F44061B5
:100CA000EFEFF0E0A6C0843009F49DC0823009F473
:100CB00094C0211531054105510509F491C0028008
:100CC000F381E02D8FEFE238F8070CF05CC0C2E84A
:100CD000DFEFCE1BDF0BCA31D10574F579018A0134
:100CE0000C2E04C016950795F794E7940A94D2F752
:100CF00081E090E0A0E0B0E00C2E04C0880F991FC6
:100D0000AA1FBB1F0A94D2F70197A109B109822338
:100D10009323A423B52321E030E040E050E0009786
:100D2000A105B10521F420E030E040E050E02E299B
:100D30003F29402B512B04C020E030E040E050E040
:100D4000DA01C9018F779070A070B070803491057E
:100D5000A105B10539F427FF09C0205C3F4F4F4F73
:100D60005F4F04C0215C3F4F4F4F5F4FE1E0F0E029
:100D7000203080E0380780E0480780E4580728F5F5
:100D8000E0E0F0E022C0E038F1056CF5E158FF4FFB
:100D9000DA01C9018F779070A070B070803491052E
:100DA000A105B10539F427FF09C0205C3F4F4F4F23
:100DB0005F4F04C0215C3F4F4F4F5F4F57FF05C04F
:100DC0005695479537952795319687E056954795DF
:100DD000379527958A95D1F70CC0E0E0F0E005C083
:100DE000E0E0F0E006C0EFEFF0E020E030E040E0CF
:100DF00050E08E2F879588278795942F9F7767954A
:100E000066276795E695E22EA92FA82BFE2FF62BD5
:100E1000622F732F8A2F9F2FCDB7DEB7E6E00C9499
:100E20001A08DC01FB012C9111963C911197129646
:100E30008C911297482F4F7750E0982F991F992740
:100E4000991F13966C911397862F880F892B90E02A
:100E5000661F6627661F6183009739F521153105E6
:100E60004105510511F482E029C082E89FEF938388
:100E7000828367E0220F331F441F551F6A95D1F705
:100E800083E0808309C0220F331F441F551F8281D6
:100E90009381019793838283203080E0380780E03C
:100EA000480780E4580778F320C08F3F910579F414
:100EB000211531054105510519F484E08083089519
:100EC00044FF03C081E0808310C010820EC08F57A2
:100ED00090409383828383E0808387E0220F331FD7
:100EE000441F551F8A95D1F7506424833583468368
:100EF00057830895FC01DB019081923008F449C0CA
:100F00008C91823008F445C0943051F46181843072
:100F1000B1F511962C91119730E0261B310941C093
:100F2000843021F0923041F48230B1F111968C91ED
:100F300011978823A1F12DC06181823001F11196B2
:100F40008C9111976817D9F42281338112968D9173
:100F50009C9113978217930794F028173907BCF0D8
:100F6000248135814681578114968D919D910D90F4
:100F7000BC91A02D82179307A407B50718F4662328
:100F800041F00DC0281739074A075B0728F466238C
:100F900031F021E030E005C020E030E002C02FEF6A
:100FA0003FEFC9010895629FD001739FF001829FB6
:100FB000E00DF11D649FE00DF11D929FF00D839FE8
:100FC000F00D749FF00D659FF00D9927729FB00D85
:100FD000E11DF91F639FB00DE11DF91FBD01CF0198
:100FE000112408952F923F924F925F926F927F92B9
:100FF0008F929F92AF92BF92CF92DF92EF92FF9229
:101000000F931F93CF93DF93CDB7DEB7CA1BDB0BD4
:101010000FB6F894DEBF0FBECDBF09942A88398879
:1010200048885F846E847D848C849B84AA84B98480
:10103000C884DF80EE80FD800C811B81AA81B9818C
:10104000CE0FD11D0FB6F894DEBF0FBECDBFED01A0
:1010500008950F931F93CF93DF938C01EB010097BB
:1010600011F42097C9F181E090E06EE070E00E94F9
:101070007408FC019C01009789F180E88383209724
:1010800071F0D387C28781E88383809116029091A3
:101090001702009721F4F0931702E093160201154E
:1010A0001105E1F01187008783818260838380913D
:1010B000180290911902009789F4F0931902E093B5
:1010C000180280911A0290911B02009739F4F09354
:1010D0001B02E0931A0202C020E030E0C901DF9158
:1010E000CF911F910F910895EF92FF920F931F934D
:1010F000CF93DF93689F8001699F100D789F100D3B
:101100001124C8010E949808E82EE7017E01F92EFB
:10111000E701209731F08E2D60E070E0A8010E9479
:10112000CD097E01CE01CDB7DEB7E6E00C941A08FA
:10113000CF93DF938230910510F482E090E0E0914C
:101140001E02F0911F0220E030E040E050E028C095
:101150006081718168177907C8F06817790781F491
:10116000828193814115510531F0DA0113969C93E8
:101170008E9312972DC090931F0280931E0228C059
:101180002115310529F06217730710F0B90102C06B
:10119000EA01DF01AF019B0172816381E72FF62F26
:1011A0003097B1F62115310501F1281B390B243098
:1011B000310580F412968D919C911397209719F028
:1011C0009B838A8304C090931F0280931E02FD01BB
:1011D000329646C0FD01E20FF31F81939193225096
:1011E000304011963C932E933BC020911C023091CD
:1011F0001D022115310541F420910A0230910B02A4
:1012000030931D0220931C0220910C0230910D029C
:101210002115310541F42DB73EB740910802509198
:101220000902241B350BE0911C02F0911D02E2170C
:10123000F307A0F42E1B3F0B2817390778F0AC01F9
:101240004E5F5F4F2417350748F04E0F5F1F5093D6
:101250001D0240931C028193919302C0E0E0F0E0F4
:10126000CF01DF91CF910895CF93DF93009709F4D9
:1012700091C0FC0132971382128260911E0270911C
:101280001F026115710581F420813181280F391FFA
:1012900080911C0290911D028217930799F5F0939B
:1012A0001D02E0931C0276C0DB0180E090E002C0EA
:1012B000CD01D901AE17BF0748F412962D913C918C
:1012C000139721153105A1F7CD0121C0B383A28366
:1012D000EF01499159919E01240F351FA217B307C1
:1012E00079F42D913C911197240F351F2E5F3F4FBC
:1012F0003183208312962D913C911397338322835F
:10130000009729F4F0931F02E0931E0243C0DC0112
:101310001396FC93EE9312974D915D91A40FB51F18
:10132000EA17FB0769F420813181240F351F2E5FF6
:101330003F4FEC0139832883228133813B832A8309
:10134000E0E0F0E002C0FB01BC01DB0112968D91F0
:101350009C9113970097B9F79B012E5F3F4F8D919A
:101360009C911197820F931F40911C0250911D0276
:101370004817590779F4309729F410921F021092F8
:101380001E0202C0138212822250304030931D028E
:1013900020931C02DF91CF910895DC0101C06D9371
:0C13A00041505040E0F70895F894FFCF52
:1013AC000000000000000000000102020303030320
:1013BC0004040404040404040505050505050505D9
:1013CC0005050505050505050606060606060606B9
:1013DC0006060606060606060606060606060606A1
:1013EC000606060606060606070707070707070789
:1013FC000707070707070707070707070707070771
:10140C000707070707070707070707070707070760
:10141C000707070707070707070707070707070750
:10142C000707070707070707080808080808080838
:10143C000808080808080808080808080808080820
:10144C000808080808080808080808080808080810
:10145C000808080808080808080808080808080800
:10146C0008080808080808080808080808080808F0
:10147C0008080808080808080808080808080808E0
:10148C0008080808080808080808080808080808D0
:10149C0008080808080808080808080808080808C0
:0E14AC000808080808080808200020020000B0
:00000001FF
