:100000000C9434000C9451000C9451000C94510049
:100010000C9451000C9451000C9451000C9451001C
:100020000C9451000C9451000C9451000C941A0142
:100030000C9451000C9451000C9451000C945100FC
:100040000C9451000C9451000C9451000C945100EC
:100050000C9451000C9451000C9451000C945100DC
:100060000C9451000C94510011241FBECFEFD8E026
:10007000DEBFCDBF11E0A0E0B1E0E4EFFDE002C0E3
:1000800005900D92A834B107D9F711E0A8E4B1E0CA
:1000900001C01D92AA35B107E1F70E9453000C94EC
:1000A000F8060C9400008F929F92AF92BF92CF926D
:1000B000DF92EF92FF920F931F93DF93CF93CDB711
:1000C000DEB72A970FB6F894DEBF0FBECDBF0E94F1
:1000D000B9010E94D1016C010E94CA015C0181E258
:1000E00084B97E010894E11CF11C80E0882E81E037
:1000F000982E00E911E0C7016AE070E0A6010E94B5
:10010000500200D000D000D0EDB7FEB73196ADB7A9
:10011000BEB71296BC92AE92119793828282F582FC
:10012000E4820E9484028DB79EB706960FB6F894BB
:100130009EBF0FBE8DBFC70165E171E044E050E096
:100140000E94F701009711F42D9AD5CFC7016AE1FB
:1001500071E045E050E00E94F701009711F42D98FE
:10016000CACFC70160E271E044E050E00E94F701AD
:10017000009799F0C70165E271E045E050E00E9408
:10018000F7010097B1F0C7016BE271E047E050E082
:100190000E94F701009719F42D9A289AACCFC70155
:1001A00063E371E048E050E00E94F701009719F422
:1001B0002D982898A0CFC7016CE371E045E050E08E
:1001C0000E94F701009709F096CF22E330E02D9AC4
:1001D000289880ED97E0F8013197F1F70197D9F76A
:1001E0002D98289A2150304091F785CF10924C01DC
:1001F00010924D0110924E0110924F01E1E8F0E093
:1002000021E0208320812860208320E43FE1309397
:10021000890020938800EFE6F0E0208122602083AF
:10022000909349018093480170934B0160934A0178
:10023000789408951F920F920FB60F9211242F9366
:100240003F934F935F936F937F938F939F93AF935E
:10025000BF93EF93FF9380914C0190914D01A0913A
:100260004E01B0914F010196A11DB11D80934C012B
:1002700090934D01A0934E01B0934F01E09148013E
:10028000F0914901309709F00995B19B07C0E091C1
:100290004A01F0914B01309709F00995FF91EF91D8
:1002A000BF91AF919F918F917F916F915F914F918E
:1002B0003F912F910F900FBE0F901F9018951F9395
:1002C0001FB7F894B09924C060914C0170914D0112
:1002D00080914E0190914F0124EF31E040E050E0D9
:1002E0000E94D80120918400309185001FBF40E01A
:1002F00050E0E4E05595479537952795EA95D1F775
:10030000260F371F481F591FB901CA011F910895B1
:1003100060914C0170914D0180914E0190914F017F
:100320006F5F7F4F8F4F9F4F24EF31E040E050E0F1
:100330000E94D801D7CF84B5836084BD84B5806224
:1003400084BD85B5816085BD18BC80E28AB90895F9
:100350009091C00095FFFCCF8093C60080E090E0B4
:1003600008958091C00087FFFCCF8091C60090E087
:1003700008951092C50087E68093C400E0ECF0E099
:1003800080818D7F808386E08093C20088E18093A6
:10039000C100089588EA91E060E070E00E940502E3
:1003A000089580E090E061EB71E00E9405020895FD
:1003B000629FD001739FF001829FE00DF11D649F49
:1003C000E00DF11D929FF00D839FF00D749FF00DD5
:1003D000659FF00D9927729FB00DE11DF91F639F76
:1003E000B00DE11DF91FBD01CF0111240895FB01DE
:1003F000DC014150504030F08D910190801919F48A
:100400000020B9F7881B990B08950F931F93CF9382
:10041000DF938C01EB01009711F42097C9F181E083
:1004200090E06EE070E00E947F04FC019C01009768
:1004300089F180E88383209771F0D387C28781E8B0
:1004400083838091500190915101009721F4F093A2
:100450005101E093500101151105E1F0118700876A
:100460008381826083838091520190915301009730
:1004700089F4F0935301E0935201809154019091DB
:100480005501009739F4F0935501E093540102C0EF
:1004900020E030E0C901DF91CF911F910F910895C5
:1004A000A0E0B0E0E6E5F2E00C94CB06EC016A01D6
:1004B000FA01838180FF1FC016161706E4F47B0142
:1004C0000894E108F1088E0110C0C6010E94F505EC
:1004D000FFEF8F3F9F0779F0F80181938F018A30FA
:1004E000910531F00894E108F108E114F10469F78D
:1004F000F801108202C0C0E0D0E07E01CE01CDB78D
:10050000DEB7E8E00C94E706A0E0B0E0EAE8F2E04D
:100510000C94D1069E01275F3F4F8D819E816F8194
:100520007885A9010E9498022096E2E00C94ED06DD
:10053000ACE0B0E0EEE9F2E00C94C1066C011B0106
:100540008A01FC0117821682838181FFD1C12E01AD
:100550000894411C511CF6019381F10193FD859192
:1005600093FF81911F01882309F4BEC1853239F4BC
:1005700093FD859193FF81911F01853229F490E0CD
:10058000B6010E943706E7CFEE24FF2420E0203298
:10059000B0F48B3269F08C3228F4803251F083321F
:1005A00071F40BC08D3239F0803349F421602CC0D6
:1005B0002260246029C0286027C0206125C027FD53
:1005C0002CC0382F30533A3098F426FF08C08E2DB7
:1005D000880FE82EEE0CEE0CE80EE30E15C08F2D02
:1005E000880FF82EFF0CFF0CF80EF30E20620CC0E3
:1005F0008E3221F426FD78C1206406C08C3611F4B9
:10060000206802C0883649F4F10193FD859193FF7B
:1006100081911F01882309F0BACF982F9554933008
:1006200018F09052933028F40C5F1F4FFFE3F983CA
:100630000DC0833631F0833771F0833509F060C027
:1006400022C0F801808189830E5F1F4F420171E053
:10065000A72EB12C16C062E0662E712C600E711EA2
:10066000F8018080918026FF03C06E2D70E002C0EB
:100670006FEF7FEFC4012C870E94EA055C018301C4
:100680002C852F7717C052E0652E712C600E711EDD
:10069000F8018080918026FF03C06E2D70E002C0BB
:1006A0006FEF7FEFC4012C870E94D8055C012C8579
:1006B0002068830123FD20C008C080E290E0B601DD
:1006C0002C870E943706FA942C858F2D90E0A8166F
:1006D000B90698F311C0F40127FD859127FF819198
:1006E0004F0190E0B6012C870E9437062C85F1104F
:1006F000FA940894A108B108A114B10461F7F1C0FB
:10070000843611F0893649F527FF08C0F801608169
:100710007181828193810C5F1F4F09C0F801608154
:100720007181882777FD8095982F0E5F1F4F4FE6C8
:10073000B42EB22297FF09C090958095709561956F
:100740007F4F8F4F9F4FF0E8BF2AA2012AE030E091
:100750000E946306782E741845C0853731F43FEE49
:10076000B32EB2222AE030E025C099EFB92EB22292
:100770008F36C1F0803720F4883509F0B5C00DC040
:10078000803721F0883709F0AFC002C020E1B22ADB
:10079000B4FE0BC084E0B82A08C0B4FE09C0E6E08D
:1007A000BE2A06C028E030E005C020E130E002C0EB
:1007B00020E132E0B7FE08C0F801608171818281DA
:1007C00093810C5F1F4F07C0F8016081718180E049
:1007D00090E00E5F1F4FA2010E946306782E7418EE
:1007E000FFE7BF22B6FE0BC02EEFB2227E1438F414
:1007F000B4FE07C0B2FC05C08FEEB82202C0A72C21
:1008000001C0AE2C8B2D90E0B4FE0DC0FE01E70DB3
:10081000F11D2081203319F4E9EEBE2209C0A39412
:10082000B2FE06C004C086789070009709F0A394C9
:100830008B2C9924B3FC14C0B0FE0FC0AF1428F465
:10084000E72CEF0CEA18AF2C08C0E72C06C080E2BA
:1008500090E0B6010E943706A394AF14C0F304C021
:10086000AF1410F4FA1801C0FF2484FE0FC080E317
:1008700090E0B6010E94370682FE1FC081FE03C0D1
:1008800088E590E010C088E790E00DC0C40186784C
:100890009070009791F081FC02C080E201C08BE271
:1008A000B7FC8DE290E0B6010E94370606C080E3F7
:1008B00090E0B6010E943706EA947E14C0F37A9461
:1008C000F201E70DF11D808190E0B6010E9437062C
:1008D0007720A9F706C080E290E0B6010E943706B3
:1008E000FA94FF20C1F737CEF6012681378102C086
:1008F0002FEF3FEFC9012C96E2E10C94DD06EF9259
:10090000FF920F931F93CF93DF93689F8001699F9E
:10091000100D789F100D1124C8010E94A304E82E29
:10092000E7017E01F92EE701209731F08E2D60E07E
:1009300070E0A8010E94E3057E01CE01CDB7DEB7CD
:10094000E6E00C94E906CF93DF938230910510F432
:1009500082E090E0E0915801F091590120E030E010
:1009600040E050E028C06081718168177907C8F0C5
:100970006817790781F4828193814115510531F01F
:10098000DA0113969C938E9312972DC09093590180
:100990008093580128C02115310529F0621773078B
:1009A00010F0B90102C0EA01DF01AF019B017281C1
:1009B0006381E72FF62F3097B1F62115310501F14C
:1009C000281B390B2430310580F412968D919C91AF
:1009D0001397209719F09B838A8304C09093590141
:1009E00080935801FD01329646C0FD01E20FF31FCE
:1009F000819391932250304011963C932E933BC0AB
:100A000020915601309157012115310541F4209173
:100A100044013091450130935701209356012091B4
:100A20004601309147012115310541F42DB73EB7FC
:100A30004091420150914301241B350BE091560136
:100A4000F0915701E217F307A0F42E1B3F0B281774
:100A5000390778F0AC014E5F5F4F2417350748F037
:100A60004E0F5F1F5093570140935601819391930E
:100A700002C0E0E0F0E0CF01DF91CF910895CF9385
:100A8000DF93009709F491C0FC0132971382128220
:100A900060915801709159016115710581F42081AF
:100AA0003181280F391F809156019091570182178B
:100AB000930799F5F0935701E093560176C0DB0157
:100AC00080E090E002C0CD01D901AE17BF0748F425
:100AD00012962D913C91139721153105A1F7CD0167
:100AE00021C0B383A283EF01499159919E01240F44
:100AF000351FA217B30779F42D913C911197240F5C
:100B0000351F2E5F3F4F3183208312962D913C91EC
:100B1000139733832283009729F4F0935901E093CC
:100B2000580143C0DC011396FC93EE9312974D914C
:100B30005D91A40FB51FEA17FB0769F4208131818D
:100B4000240F351F2E5F3F4FEC013983288322810C
:100B500033813B832A83E0E0F0E002C0FB01BC016B
:100B6000DB0112968D919C9113970097B9F79B0129
:100B70002E5F3F4F8D919C911197820F931F409153
:100B80005601509157014817590779F4309729F4C5
:100B9000109259011092580102C013821282225001
:100BA00030403093570120935601DF91CF91089543
:100BB000FC010590615070400110D8F78095909528
:100BC0008E0F9F1F0895DC0101C06D93415050406E
:100BD000E0F70895FC016150704001900110D8F7D2
:100BE000809590958E0F9F1F0895CF93DF93EC0112
:100BF0003B8130FF36C036FF09C03F7B3B838E818F
:100C00009F8101969F838E832A8129C032FF0FC066
:100C1000E881F9818081992787FD9095009719F4E3
:100C200030623B831EC03196F983E88311C0EA85A8
:100C3000FB85CE01099597FF0BC02B813FEF8F3FBE
:100C4000930711F480E101C080E2822B8B8309C0FD
:100C50002E813F812F5F3F4F3F832E83282F30E02F
:100C600002C02FEF3FEFC901DF91CF9108950F939D
:100C70001F93CF93DF938C01EB018B8181FF1BC00E
:100C800082FF0DC02E813F818C819D8128173907FD
:100C900064F4E881F9810193F983E88306C0E8856B
:100CA000F985802F0995009731F48E819F810196F7
:100CB0009F838E8302C00FEF1FEFC801DF91CF919A
:100CC0001F910F910895FA01AA27283051F1203180
:100CD00081F1E8946F936E7F6E5F7F4F8F4F9F4FD0
:100CE000AF4FB1E03ED0B4E03CD0670F781F891F12
:100CF0009A1FA11D680F791F8A1F911DA11D6A0FE0
:100D0000711D811D911DA11D20D009F468943F9192
:100D10002AE0269F11243019305D3193DEF6CF0191
:100D20000895462F4770405D4193B3E00FD0C9F757
:100D3000F6CF462F4F70405D4A3318F0495D31FDC4
:100D40004052419302D0A9F7EACFB4E0A695979517
:100D5000879577956795BA95C9F7009761057105ED
:100D600008959B01AC010A2E069457954795379537
:100D70002795BA95C9F7620F731F841F951FA01D91
:100D800008952F923F924F925F926F927F928F922F
:100D90009F92AF92BF92CF92DF92EF92FF920F930A
:100DA0001F93CF93DF93CDB7DEB7CA1BDB0B0FB614
:100DB000F894DEBF0FBECDBF09942A8839884888D1
:100DC0005F846E847D848C849B84AA84B984C88467
:100DD000DF80EE80FD800C811B81AA81B981CE0F5E
:100DE000D11D0FB6F894DEBF0FBECDBFED01089543
:040DF000F894FFCFA5
:100DF4004D657373616765205265636965766564E3
:100E04003A202573006F6E2031006F666620310032
:100E14006F6E2032006F66662032006F6E20626F44
:100E24007468006F666620626F74680064616E6344
:080E3400650020005A010000D6
:00000001FF
