S015000073657269616C636F6E74726F6C2E737265638E
S11300000C9434000C9451000C9451000C94510045
S11300100C9451000C9451000C9451000C94510018
S11300200C9451000C9451000C9451000C94E20077
S11300300C9451000C9451000C9451000C945100F8
S11300400C9451000C9451000C9451000C945100E8
S11300500C9451000C9451000C9451000C945100D8
S11300600C9451000C94510011241FBECFEFD8E022
S1130070DEBFCDBF11E0A0E0B1E0E0EFFDE002C0E3
S113008005900D92A234B107D9F711E0A2E4B1E0D2
S113009001C01D92A435B107E1F70E9453000C94EE
S11300A0F6060C940000AF92BF92CF92DF92EF92CB
S11300B0FF920F931F93DF93CF93CDB7DEB72A97A9
S11300C00FB6F894DEBF0FBECDBF0E9481010E941F
S11300D099016C010E9492017C0180E284B98E0135
S11300E00F5F1F4F80E0A82E81E0B82EC8016AE0A0
S11300F070E0A6010E94180200D000D000D0EDB735
S1130100FEB73196ADB7BEB71296FC92EE92119738
S1130110B382A282158304830E944C028DB79EB7DA
S113012006960FB6F8949EBF0FBE8DBFC80165E159
S113013071E042E050E00E94BF010097A1F0898184
S11301408F36A1F68A81863689F68B81863671F6DA
S11301502D9889E291E061E070E041E150E097017F
S11301600E946002C3CF2D9A88E191E061E070E0C3
S113017040E150E097010E946002B8CF109246011E
S1130180109247011092480110924901E1E8F0E011
S113019021E0208320812860208320E43FE1309304
S11301A0890020938800EFE6F0E02081226020831C
S11301B090934301809342017093450160934401FD
S11301C0789408951F920F920FB60F9211242F93D3
S11301D03F934F935F936F937F938F939F93AF93CB
S11301E0BF93EF93FF938091460190914701A091B3
S11301F04801B09149010196A11DB11D80934601AA
S113020090934701A0934801B0934901E0914201C2
S1130210F0914301309709F00995B19B07C0E09133
S11302204401F0914501309709F00995FF91EF9150
S1130230BF91AF919F918F917F916F915F914F91FA
S11302403F912F910F900FBE0F901F9018951F9301
S11302501FB7F894B09924C060914601709147018A
S1130260809148019091490124EF31E040E050E051
S11302700E94A00120918400309185001FBF40E0BE
S113028050E0E4E05595479537952795EA95D1F7E1
S1130290260F371F481F591FB901CA011F9108951E
S11302A06091460170914701809148019091490104
S11302B06F5F7F4F8F4F9F4F24EF31E040E050E05E
S11302C00E94A001D7CF84B5836084BD84B58062C9
S11302D084BD85B5816085BD18BC80E28AB9089566
S11302E09091C00095FFFCCF8093C60080E090E021
S11302F008958091C00087FFFCCF8091C60090E0F4
S113030008951092C50087E68093C400E0ECF0E005
S113031080818D7F808386E08093C20088E1809312
S1130320C100089580E791E060E070E00E94CD0193
S1130330089580E090E069E771E00E94CD0108959E
S1130340629FD001739FF001829FE00DF11D649FB5
S1130350E00DF11D929FF00D839FF00D749FF00D41
S1130360659FF00D9927729FB00DE11DF91F639FE2
S1130370B00DE11DF91FBD01CF0111240895FB014A
S1130380DC014150504030F08D910190801919F4F6
S11303900020B9F7881B990B08950F931F93CF93EF
S11303A0DF938C01EB01009711F42097C9F181E0F0
S11303B090E06EE070E00E947D04FC019C010097D7
S11303C089F180E88383209771F0D387C28781E81D
S11303D0838380914A0190914B01009721F4F0931B
S11303E04B01E0934A0101151105E1F011870087E3
S11303F083818260838380914C0190914D010097A9
S113040089F4F0934D01E0934C0180914E01909159
S11304104F01009739F4F0934F01E0934E0102C06D
S113042020E030E0C901DF91CF911F910F91089531
S1130430A0E0B0E0EEE1F2E00C94C906EC016A0140
S1130440FA01838180FF1FC016161706E4F47B01AE
S11304500894E108F1088E0110C0C6010E94F3055A
S1130460FFEF8F3F9F0779F0F80181938F018A3066
S1130470910531F00894E108F108E114F10469F7F9
S1130480F801108202C0C0E0D0E07E01CE01CDB7F9
S1130490DEB7E8E00C94E506A0E0B0E0E2E5F2E0C7
S11304A00C94CF069E01275F3F4F8D819E816F8103
S11304B07885A9010E9496022096E2E00C94EB064E
S11304C0A0E0B0E0E6E6F2E00C94C5064B015A0168
S11304D06901D90113962C91139721FF1FC0C0E025
S11304E0D0E014C0D6011896ED91FC911997D8016B
S11304F08D918D01B6010995009791F40894E11C42
S1130500F11CC801E814F90468F32196CA15DB0547
S113051038F4082F192FEE24FF24F3CFC0E0D0E0E5
S1130520CE01CDB7DEB7ECE00C94E106ACE0B0E070
S1130530ECE9F2E00C94BF066C011B018A01FC019A
S113054017821682838181FFD1C12E010894411C38
S1130550511CF6019381F10193FD859193FF8191E3
S11305601F01882309F4BEC1853239F493FD8591B6
S113057093FF81911F01853229F490E0B6010E9416
S11305803506E7CFEE24FF2420E02032B0F48B328E
S113059069F08C3228F4803251F0833271F40BC04C
S11305A08D3239F0803349F421602CC022602460FC
S11305B029C0286027C0206125C027FD2CC0382F02
S11305C030533A3098F426FF08C08E2D880FE82E59
S11305D0EE0CEE0CE80EE30E15C08F2D880FF82EEE
S11305E0FF0CFF0CF80EF30E20620CC08E3221F4C7
S11305F026FD78C1206406C08C3611F4206802C040
S1130600883649F4F10193FD859193FF81911F018F
S1130610882309F0BACF982F9554933018F090524C
S1130620933028F40C5F1F4FFFE3F9830DC083362A
S113063031F0833771F0833509F060C022C0F801CE
S1130640808189830E5F1F4F420171E0A72EB12C78
S113065016C062E0662E712C600E711EF801808057
S1130660918026FF03C06E2D70E002C06FEF7FEF14
S1130670C4012C870E94E8055C0183012C852F7737
S113068017C052E0652E712C600E711EF801808037
S1130690918026FF03C06E2D70E002C06FEF7FEFE4
S11306A0C4012C870E94D6055C012C852068830137
S11306B023FD20C008C080E290E0B6012C870E9490
S11306C03506FA942C858F2D90E0A816B90698F378
S11306D011C0F40127FD859127FF81914F0190E01E
S11306E0B6012C870E9435062C85F110FA940894E3
S11306F0A108B108A114B10461F7F1C0843611F066
S1130700893649F527FF08C0F8016081718182812B
S113071093810C5F1F4F09C0F801608171818827A4
S113072077FD8095982F0E5F1F4F4FE6B42EB222AF
S113073097FF09C090958095709561957F4F8F4F75
S11307409F4FF0E8BF2AA2012AE030E00E94610630
S1130750782E741845C0853731F43FEEB32EB2229B
S11307602AE030E025C099EFB92EB2228F36C1F0CD
S1130770803720F4883509F0B5C00DC0803721F0EA
S1130780883709F0AFC002C020E1B22AB4FE0BC022
S113079084E0B82A08C0B4FE09C0E6E0BE2A06C058
S11307A028E030E005C020E130E002C020E132E082
S11307B0B7FE08C0F80160817181828193810C5F6A
S11307C01F4F07C0F8016081718180E090E00E5FE7
S11307D01F4FA2010E946106782E7418FFE7BF2202
S11307E0B6FE0BC02EEFB2227E1438F4B4FE07C05E
S11307F0B2FC05C08FEEB82202C0A72C01C0AE2CFB
S11308008B2D90E0B4FE0DC0FE01E70DF11D20819B
S1130810203319F4E9EEBE2209C0A394B2FE06C047
S113082004C086789070009709F0A3948B2C9924C7
S1130830B3FC14C0B0FE0FC0AF1428F4E72CEF0CC7
S1130840EA18AF2C08C0E72C06C080E290E0B6019D
S11308500E943506A394AF14C0F304C0AF1410F47F
S1130860FA1801C0FF2484FE0FC080E390E0B601B3
S11308700E94350682FE1FC081FE03C088E590E019
S113088010C088E790E00DC0C4018678907000978E
S113089091F081FC02C080E201C08BE2B7FC8DE2E2
S11308A090E0B6010E94350606C080E390E0B601F0
S11308B00E943506EA947E14C0F37A94F201E70D9F
S11308C0F11D808190E0B6010E9435067720A9F7DA
S11308D006C080E290E0B6010E943506FA94FF203B
S11308E0C1F737CEF6012681378102C02FEF3FEFE3
S11308F0C9012C96E2E10C94DB06EF92FF920F9370
S11309001F93CF93DF93689F8001699F100D789F99
S1130910100D1124C8010E94A104E82EE7017E01F4
S1130920F92EE701209731F08E2D60E070E0A801E8
S11309300E94E1057E01CE01CDB7DEB7E6E00C945E
S1130940E706CF93DF938230910510F482E090E0C4
S1130950E0915201F091530120E030E040E050E09A
S113096028C06081718168177907C8F06817790712
S113097081F4828193814115510531F0DA01139696
S11309809C938E9312972DC09093530180935201A0
S113099028C02115310529F06217730710F0B90139
S11309A002C0EA01DF01AF019B0172816381E72F7D
S11309B0F62F3097B1F62115310501F1281B390BBB
S11309C02430310580F412968D919C9113972097D1
S11309D019F09B838A8304C090935301809352013E
S11309E0FD01329646C0FD01E20FF31F81939193FE
S11309F02250304011963C932E933BC020915001DD
S1130A00309151012115310541F420913D0130917E
S1130A103E01309351012093500120913F013091C8
S1130A2040012115310541F42DB73EB740913B01FA
S1130A3050913C01241B350BE0915001F091510180
S1130A40E217F307A0F42E1B3F0B2817390778F0A1
S1130A50AC014E5F5F4F2417350748F04E0F5F1F00
S1130A6050935101409350018193919302C0E0E06F
S1130A70F0E0CF01DF91CF910895CF93DF930097FA
S1130A8009F491C0FC0132971382128260915201E1
S1130A90709153016115710581F420813181280F12
S1130AA0391F80915001909151018217930799F554
S1130AB0F0935101E093500176C0DB0180E090E0B7
S1130AC002C0CD01D901AE17BF0748F412962D918B
S1130AD03C91139721153105A1F7CD0121C0B383B2
S1130AE0A283EF01499159919E01240F351FA2174A
S1130AF0B30779F42D913C911197240F351F2E5F84
S1130B003F4F3183208312962D913C911397338369
S1130B102283009729F4F0935301E093520143C0D8
S1130B20DC011396FC93EE9312974D915D91A40F03
S1130B30B51FEA17FB0769F420813181240F351FA3
S1130B402E5F3F4FEC0139832883228133813B831D
S1130B502A83E0E0F0E002C0FB01BC01DB01129655
S1130B608D919C9113970097B9F79B012E5F3F4F8E
S1130B708D919C911197820F931F40915001509138
S1130B8051014817590779F4309729F41092530109
S1130B901092520102C013821282225030403093CC
S1130BA0510120935001DF91CF910895FC010590EC
S1130BB0615070400110D8F7809590958E0F9F1F5B
S1130BC00895DC0101C06D9341505040E0F7089551
S1130BD0FC016150704001900110D8F78095909508
S1130BE08E0F9F1F0895CF93DF93EC013B8130FF5D
S1130BF036C036FF09C03F7B3B838E819F810196BF
S1130C009F838E832A8129C032FF0FC0E881F98136
S1130C108081992787FD9095009719F430623B8372
S1130C201EC03196F983E88311C0EA85FB85CE01A5
S1130C30099597FF0BC02B813FEF8F3F930711F46A
S1130C4080E101C080E2822B8B8309C02E813F8129
S1130C502F5F3F4F3F832E83282F30E002C02FEFBA
S1130C603FEFC901DF91CF9108950F931F93CF9365
S1130C70DF938C01EB018B8181FF1BC082FF0DC0D0
S1130C802E813F818C819D812817390764F4E88186
S1130C90F9810193F983E88306C0E885F985802FFB
S1130CA00995009731F48E819F8101969F838E83ED
S1130CB002C00FEF1FEFC801DF91CF911F910F9179
S1130CC00895FA01AA27283051F1203181F1E894DE
S1130CD06F936E7F6E5F7F4F8F4F9F4FAF4FB1E02B
S1130CE03ED0B4E03CD0670F781F891F9A1FA11D26
S1130CF0680F791F8A1F911DA11D6A0F711D811D27
S1130D00911DA11D20D009F468943F912AE0269FEB
S1130D1011243019305D3193DEF6CF010895462F4A
S1130D204770405D4193B3E00FD0C9F7F6CF462F2B
S1130D304F70405D4A3318F0495D31FD4052419394
S1130D4002D0A9F7EACFB4E0A69597958795779551
S1130D506795BA95C9F700976105710508959B01D8
S1130D60AC010A2E06945795479537952795BA9561
S1130D70C9F7620F731F841F951FA01D08952F923A
S1130D803F924F925F926F927F928F929F92AF9217
S1130D90BF92CF92DF92EF92FF920F931F93CF9364
S1130DA0DF93CDB7DEB7CA1BDB0B0FB6F894DEBFFB
S1130DB00FBECDBF09942A88398848885F846E8421
S1130DC07D848C849B84AA84B984C884DF80EE806B
S1130DD0FD800C811B81AA81B981CE0FD11D0FB674
S1130DE0F894DEBF0FBECDBFED010895F894FFCF98
S1130DF04D657373616765205265636965766564E3
S1130E003A202573006F6E006C69676874207475EE
S1130E10726E6564206F6E0A006C69676874207472
S1130E2075726E6564206F66660A002000540100C6
S1050E300000BC
S9030000FC
